{
  "_format": "hh-sol-artifact-1",
  "contractName": "FansProtocol",
  "sourceName": "contracts/FansProtocol.sol",
  "abi": [
    {
      "inputs": [
        {
          "internalType": "contract IERC20",
          "name": "_currencyToken",
          "type": "address"
        }
      ],
      "stateMutability": "nonpayable",
      "type": "constructor"
    },
    {
      "inputs": [
        {
          "internalType": "address",
          "name": "owner",
          "type": "address"
        }
      ],
      "name": "OwnableInvalidOwner",
      "type": "error"
    },
    {
      "inputs": [
        {
          "internalType": "address",
          "name": "account",
          "type": "address"
        }
      ],
      "name": "OwnableUnauthorizedAccount",
      "type": "error"
    },
    {
      "inputs": [],
      "name": "ReentrancyGuardReentrantCall",
      "type": "error"
    },
    {
      "anonymous": false,
      "inputs": [
        {
          "indexed": false,
          "internalType": "address",
          "name": "token",
          "type": "address"
        },
        {
          "indexed": false,
          "internalType": "uint256",
          "name": "amountETH",
          "type": "uint256"
        },
        {
          "indexed": false,
          "internalType": "uint256",
          "name": "amountToken",
          "type": "uint256"
        }
      ],
      "name": "DEXPoolCreation",
      "type": "event"
    },
    {
      "anonymous": false,
      "inputs": [
        {
          "indexed": false,
          "internalType": "string",
          "name": "message",
          "type": "string"
        },
        {
          "indexed": false,
          "internalType": "uint256",
          "name": "value",
          "type": "uint256"
        }
      ],
      "name": "Debug",
      "type": "event"
    },
    {
      "anonymous": false,
      "inputs": [
        {
          "indexed": true,
          "internalType": "address",
          "name": "previousOwner",
          "type": "address"
        },
        {
          "indexed": true,
          "internalType": "address",
          "name": "newOwner",
          "type": "address"
        }
      ],
      "name": "OwnershipTransferred",
      "type": "event"
    },
    {
      "anonymous": false,
      "inputs": [
        {
          "indexed": false,
          "internalType": "uint256",
          "name": "tokenId",
          "type": "uint256"
        },
        {
          "indexed": false,
          "internalType": "address",
          "name": "tokenAddress",
          "type": "address"
        },
        {
          "indexed": false,
          "internalType": "string",
          "name": "name",
          "type": "string"
        },
        {
          "indexed": false,
          "internalType": "string",
          "name": "symbol",
          "type": "string"
        },
        {
          "indexed": false,
          "internalType": "uint256",
          "name": "launchTime",
          "type": "uint256"
        },
        {
          "indexed": false,
          "internalType": "address",
          "name": "tokenCreator",
          "type": "address"
        }
      ],
      "name": "TokenCreation",
      "type": "event"
    },
    {
      "anonymous": false,
      "inputs": [
        {
          "indexed": false,
          "internalType": "bool",
          "name": "isTokenPurchase",
          "type": "bool"
        },
        {
          "indexed": false,
          "internalType": "uint256",
          "name": "tokenId",
          "type": "uint256"
        },
        {
          "indexed": true,
          "internalType": "address",
          "name": "tokenAddress",
          "type": "address"
        },
        {
          "indexed": true,
          "internalType": "address",
          "name": "trader",
          "type": "address"
        },
        {
          "indexed": false,
          "internalType": "uint256",
          "name": "tokenAmount",
          "type": "uint256"
        },
        {
          "indexed": false,
          "internalType": "uint256",
          "name": "currencyAmount",
          "type": "uint256"
        }
      ],
      "name": "TokenTrade",
      "type": "event"
    },
    {
      "inputs": [],
      "name": "A",
      "outputs": [
        {
          "internalType": "uint256",
          "name": "",
          "type": "uint256"
        }
      ],
      "stateMutability": "view",
      "type": "function"
    },
    {
      "inputs": [],
      "name": "B",
      "outputs": [
        {
          "internalType": "uint256",
          "name": "",
          "type": "uint256"
        }
      ],
      "stateMutability": "view",
      "type": "function"
    },
    {
      "inputs": [],
      "name": "DEX_FEE_BP",
      "outputs": [
        {
          "internalType": "uint256",
          "name": "",
          "type": "uint256"
        }
      ],
      "stateMutability": "view",
      "type": "function"
    },
    {
      "inputs": [],
      "name": "PLATFORM_FEE_BP",
      "outputs": [
        {
          "internalType": "uint256",
          "name": "",
          "type": "uint256"
        }
      ],
      "stateMutability": "view",
      "type": "function"
    },
    {
      "inputs": [],
      "name": "PROGRESS_THRESHOLD",
      "outputs": [
        {
          "internalType": "uint256",
          "name": "",
          "type": "uint256"
        }
      ],
      "stateMutability": "view",
      "type": "function"
    },
    {
      "inputs": [
        {
          "internalType": "string",
          "name": "name",
          "type": "string"
        },
        {
          "internalType": "string",
          "name": "symbol",
          "type": "string"
        },
        {
          "internalType": "bytes32",
          "name": "_salt",
          "type": "bytes32"
        }
      ],
      "name": "createToken",
      "outputs": [
        {
          "internalType": "address",
          "name": "",
          "type": "address"
        },
        {
          "internalType": "uint256",
          "name": "",
          "type": "uint256"
        }
      ],
      "stateMutability": "nonpayable",
      "type": "function"
    },
    {
      "inputs": [],
      "name": "currencyToken",
      "outputs": [
        {
          "internalType": "contract IERC20",
          "name": "",
          "type": "address"
        }
      ],
      "stateMutability": "view",
      "type": "function"
    },
    {
      "inputs": [
        {
          "internalType": "uint256",
          "name": "tokenId",
          "type": "uint256"
        }
      ],
      "name": "getBondingCurveInfo",
      "outputs": [
        {
          "internalType": "uint256",
          "name": "price",
          "type": "uint256"
        },
        {
          "internalType": "uint256",
          "name": "bondingCurveProgress",
          "type": "uint256"
        },
        {
          "internalType": "uint256",
          "name": "marketValue",
          "type": "uint256"
        }
      ],
      "stateMutability": "view",
      "type": "function"
    },
    {
      "inputs": [],
      "name": "isDEXPhase",
      "outputs": [
        {
          "internalType": "bool",
          "name": "",
          "type": "bool"
        }
      ],
      "stateMutability": "view",
      "type": "function"
    },
    {
      "inputs": [],
      "name": "owner",
      "outputs": [
        {
          "internalType": "address",
          "name": "",
          "type": "address"
        }
      ],
      "stateMutability": "view",
      "type": "function"
    },
    {
      "inputs": [
        {
          "internalType": "uint256",
          "name": "tokenId",
          "type": "uint256"
        },
        {
          "internalType": "uint256",
          "name": "tokenAmount",
          "type": "uint256"
        }
      ],
      "name": "purchaseToken",
      "outputs": [],
      "stateMutability": "nonpayable",
      "type": "function"
    },
    {
      "inputs": [
        {
          "internalType": "uint256",
          "name": "tokenId",
          "type": "uint256"
        },
        {
          "internalType": "uint256",
          "name": "currencyAmount",
          "type": "uint256"
        }
      ],
      "name": "purchaseTokenWithCurrency",
      "outputs": [],
      "stateMutability": "nonpayable",
      "type": "function"
    },
    {
      "inputs": [],
      "name": "renounceOwnership",
      "outputs": [],
      "stateMutability": "nonpayable",
      "type": "function"
    },
    {
      "inputs": [
        {
          "internalType": "uint256",
          "name": "tokenId",
          "type": "uint256"
        },
        {
          "internalType": "uint256",
          "name": "tokenAmount",
          "type": "uint256"
        }
      ],
      "name": "sellToken",
      "outputs": [],
      "stateMutability": "nonpayable",
      "type": "function"
    },
    {
      "inputs": [],
      "name": "tokenCount",
      "outputs": [
        {
          "internalType": "uint256",
          "name": "",
          "type": "uint256"
        }
      ],
      "stateMutability": "view",
      "type": "function"
    },
    {
      "inputs": [
        {
          "internalType": "uint256",
          "name": "",
          "type": "uint256"
        }
      ],
      "name": "tokens",
      "outputs": [
        {
          "internalType": "address",
          "name": "tokenAddress",
          "type": "address"
        },
        {
          "internalType": "string",
          "name": "name",
          "type": "string"
        },
        {
          "internalType": "string",
          "name": "symbol",
          "type": "string"
        },
        {
          "internalType": "address",
          "name": "creator",
          "type": "address"
        },
        {
          "internalType": "uint256",
          "name": "tokenSold",
          "type": "uint256"
        },
        {
          "internalType": "uint256",
          "name": "currencyCollected",
          "type": "uint256"
        }
      ],
      "stateMutability": "view",
      "type": "function"
    },
    {
      "inputs": [],
      "name": "totalFeeCollected",
      "outputs": [
        {
          "internalType": "uint256",
          "name": "",
          "type": "uint256"
        }
      ],
      "stateMutability": "view",
      "type": "function"
    },
    {
      "inputs": [
        {
          "internalType": "address",
          "name": "newOwner",
          "type": "address"
        }
      ],
      "name": "transferOwnership",
      "outputs": [],
      "stateMutability": "nonpayable",
      "type": "function"
    },
    {
      "inputs": [],
      "name": "uniswapRouter",
      "outputs": [
        {
          "internalType": "contract IUniswapV2Router02",
          "name": "",
          "type": "address"
        }
      ],
      "stateMutability": "view",
      "type": "function"
    },
    {
      "inputs": [
        {
          "internalType": "address payable",
          "name": "to",
          "type": "address"
        },
        {
          "internalType": "uint256",
          "name": "amount",
          "type": "uint256"
        }
      ],
      "name": "withdrawFees",
      "outputs": [],
      "stateMutability": "nonpayable",
      "type": "function"
    },
    {
      "stateMutability": "payable",
      "type": "receive"
    }
  ],
  "bytecode": "0x6080604052600160045534801561001557600080fd5b50604051615bf7380380615bf783398181016040528101906100379190610296565b33600073ffffffffffffffffffffffffffffffffffffffff168173ffffffffffffffffffffffffffffffffffffffff16036100aa5760006040517f1e4fbdf70000000000000000000000000000000000000000000000000000000081526004016100a191906102d2565b60405180910390fd5b6100b98161015d60201b60201c565b506001808190555080600260006101000a81548173ffffffffffffffffffffffffffffffffffffffff021916908373ffffffffffffffffffffffffffffffffffffffff16021790555073c532a74256d3db42d0bf7a0400fefdbad7694008600360006101000a81548173ffffffffffffffffffffffffffffffffffffffff021916908373ffffffffffffffffffffffffffffffffffffffff160217905550506102ed565b60008060009054906101000a900473ffffffffffffffffffffffffffffffffffffffff169050816000806101000a81548173ffffffffffffffffffffffffffffffffffffffff021916908373ffffffffffffffffffffffffffffffffffffffff1602179055508173ffffffffffffffffffffffffffffffffffffffff168173ffffffffffffffffffffffffffffffffffffffff167f8be0079c531659141344cd1fd0a4f28419497f9722a3daafe3b4186f6b6457e060405160405180910390a35050565b600080fd5b600073ffffffffffffffffffffffffffffffffffffffff82169050919050565b600061025182610226565b9050919050565b600061026382610246565b9050919050565b61027381610258565b811461027e57600080fd5b50565b6000815190506102908161026a565b92915050565b6000602082840312156102ac576102ab610221565b5b60006102ba84828501610281565b91505092915050565b6102cc81610246565b82525050565b60006020820190506102e760008301846102c3565b92915050565b6158fb806102fc6000396000f3fe6080604052600436106101235760003560e01c8063881e7073116100a0578063b9b2b5cd11610064578063b9b2b5cd146103d8578063ccd82aad14610403578063de7adf6e1461042c578063f2fde38b14610457578063f446c1d0146104805761012a565b8063881e7073146102ef5780638da5cb5b1461031a5780639e433b6f146103455780639f181b5e14610384578063ad3b1b47146103af5761012a565b80635634f548116100e75780635634f548146102195780636b2fa37414610244578063715018a61461026f57806372c46e1014610286578063735de9f7146102c45761012a565b806303ca9bf31461012f5780631897bcf31461015a578063301c5b901461018357806332e7c5bf146101ac5780634f64b2be146101d75761012a565b3661012a57005b600080fd5b34801561013b57600080fd5b506101446104ab565b6040516101519190612882565b60405180910390f35b34801561016657600080fd5b50610181600480360381019061017c91906128dd565b6104b0565b005b34801561018f57600080fd5b506101aa60048036038101906101a591906128dd565b610afb565b005b3480156101b857600080fd5b506101c1611121565b6040516101ce9190612882565b60405180910390f35b3480156101e357600080fd5b506101fe60048036038101906101f9919061291d565b61112a565b60405161021096959493929190612a1b565b60405180910390f35b34801561022557600080fd5b5061022e6112b6565b60405161023b9190612882565b60405180910390f35b34801561025057600080fd5b506102596112c4565b6040516102669190612ae9565b60405180910390f35b34801561027b57600080fd5b506102846112ea565b005b34801561029257600080fd5b506102ad60048036038101906102a89190612c6f565b6112fe565b6040516102bb929190612cfa565b60405180910390f35b3480156102d057600080fd5b506102d9611821565b6040516102e69190612d44565b60405180910390f35b3480156102fb57600080fd5b50610304611847565b6040516103119190612d7a565b60405180910390f35b34801561032657600080fd5b5061032f61185a565b60405161033c9190612d95565b60405180910390f35b34801561035157600080fd5b5061036c6004803603810190610367919061291d565b611883565b60405161037b93929190612db0565b60405180910390f35b34801561039057600080fd5b50610399611a09565b6040516103a69190612882565b60405180910390f35b3480156103bb57600080fd5b506103d660048036038101906103d19190612e25565b611a0f565b005b3480156103e457600080fd5b506103ed611b70565b6040516103fa9190612882565b60405180910390f35b34801561040f57600080fd5b5061042a600480360381019061042591906128dd565b611b76565b005b34801561043857600080fd5b50610441612141565b60405161044e9190612882565b60405180910390f35b34801561046357600080fd5b5061047e60048036038101906104799190612e91565b612146565b005b34801561048c57600080fd5b506104956121cc565b6040516104a29190612882565b60405180910390f35b603281565b6104b86121d4565b600260149054906101000a900460ff1615610508576040517f08c379a00000000000000000000000000000000000000000000000000000000081526004016104ff90612f0a565b60405180910390fd5b6105118261221a565b6000600660008481526020019081526020016000209050600073ffffffffffffffffffffffffffffffffffffffff168160000160009054906101000a900473ffffffffffffffffffffffffffffffffffffffff1673ffffffffffffffffffffffffffffffffffffffff16036105bb576040517f08c379a00000000000000000000000000000000000000000000000000000000081526004016105b290612f76565b60405180910390fd5b6000821180156106685750818160000160009054906101000a900473ffffffffffffffffffffffffffffffffffffffff1673ffffffffffffffffffffffffffffffffffffffff166370a08231336040518263ffffffff1660e01b81526004016106249190612d95565b602060405180830381865afa158015610641573d6000803e3d6000fd5b505050506040513d601f19601f820116820180604052508101906106659190612fab565b10155b6106a7576040517f08c379a000000000000000000000000000000000000000000000000000000000815260040161069e90613024565b60405180910390fd5b600081600501549050600082600401549050600084826106c79190613073565b90506000610bb86801a055690d9db8000083670de0b6b3a7640000633ff4aeff6106f191906130a7565b6106fb9190613073565b6ec097ce7bc90715b34b9f100000000064077eac81e261071b91906130a7565b6107259190613118565b61072f9190613073565b61073991906130a7565b9050600081856107499190613073565b905080600260009054906101000a900473ffffffffffffffffffffffffffffffffffffffff1673ffffffffffffffffffffffffffffffffffffffff166370a08231306040518263ffffffff1660e01b81526004016107a79190612d95565b602060405180830381865afa1580156107c4573d6000803e3d6000fd5b505050506040513d601f19601f820116820180604052508101906107e89190612fab565b1015610829576040517f08c379a0000000000000000000000000000000000000000000000000000000008152600401610820906131bb565b60405180910390fd5b600061271060328361083b91906130a7565b6108459190613118565b9050806005600082825461085991906131db565b925050819055506000818361086e9190613073565b90508388600501819055508488600401819055508760000160009054906101000a900473ffffffffffffffffffffffffffffffffffffffff1673ffffffffffffffffffffffffffffffffffffffff166323b872dd33308c6040518463ffffffff1660e01b81526004016108e39392919061320f565b6020604051808303816000875af1158015610902573d6000803e3d6000fd5b505050506040513d601f19601f820116820180604052508101906109269190613272565b508760000160009054906101000a900473ffffffffffffffffffffffffffffffffffffffff1673ffffffffffffffffffffffffffffffffffffffff166342966c688a6040518263ffffffff1660e01b81526004016109849190612882565b600060405180830381600087803b15801561099e57600080fd5b505af11580156109b2573d6000803e3d6000fd5b50505050600260009054906101000a900473ffffffffffffffffffffffffffffffffffffffff1673ffffffffffffffffffffffffffffffffffffffff1663a9059cbb33836040518363ffffffff1660e01b8152600401610a13929190612cfa565b6020604051808303816000875af1158015610a32573d6000803e3d6000fd5b505050506040513d601f19601f82011682018060405250810190610a569190613272565b503373ffffffffffffffffffffffffffffffffffffffff168860000160009054906101000a900473ffffffffffffffffffffffffffffffffffffffff1673ffffffffffffffffffffffffffffffffffffffff167f9035ecdcaed275d6bebbba87ff80ec350e02146610b037b3fc14d0de3ecd309460008d8d88604051610adf949392919061329f565b60405180910390a35050505050505050610af7612285565b5050565b610b036121d4565b600260149054906101000a900460ff1615610b53576040517f08c379a0000000000000000000000000000000000000000000000000000000008152600401610b4a90612f0a565b60405180910390fd5b610b5c8261221a565b60008111610b9f576040517f08c379a0000000000000000000000000000000000000000000000000000000008152600401610b9690613330565b60405180910390fd5b6000600660008481526020019081526020016000209050600073ffffffffffffffffffffffffffffffffffffffff168160000160009054906101000a900473ffffffffffffffffffffffffffffffffffffffff1673ffffffffffffffffffffffffffffffffffffffff1603610c49576040517f08c379a0000000000000000000000000000000000000000000000000000000008152600401610c4090612f76565b60405180910390fd5b60008160050154905060008260040154905060008482610c6991906131db565b90506000610bb86801a055690d9db8000083670de0b6b3a7640000633ff4aeff610c9391906130a7565b610c9d9190613073565b6ec097ce7bc90715b34b9f100000000064077eac81e2610cbd91906130a7565b610cc79190613118565b610cd19190613073565b610cdb91906130a7565b905060008482610ceb9190613073565b90506000612710603283610cff91906130a7565b610d099190613118565b905060008183610d1991906131db565b9050600081118015610dc6575080600260009054906101000a900473ffffffffffffffffffffffffffffffffffffffff1673ffffffffffffffffffffffffffffffffffffffff166370a08231336040518263ffffffff1660e01b8152600401610d829190612d95565b602060405180830381865afa158015610d9f573d6000803e3d6000fd5b505050506040513d601f19601f82011682018060405250810190610dc39190612fab565b10155b610e05576040517f08c379a0000000000000000000000000000000000000000000000000000000008152600401610dfc9061339c565b60405180910390fd5b600260009054906101000a900473ffffffffffffffffffffffffffffffffffffffff1673ffffffffffffffffffffffffffffffffffffffff166323b872dd3330846040518463ffffffff1660e01b8152600401610e649392919061320f565b6020604051808303816000875af1158015610e83573d6000803e3d6000fd5b505050506040513d601f19601f82011682018060405250810190610ea79190613272565b508160056000828254610eba91906131db565b9250508190555082886005016000828254610ed591906131db565b9250508190555084886004018190555060008860000160009054906101000a900473ffffffffffffffffffffffffffffffffffffffff16905060008173ffffffffffffffffffffffffffffffffffffffff166370a08231306040518263ffffffff1660e01b8152600401610f499190612d95565b602060405180830381865afa158015610f66573d6000803e3d6000fd5b505050506040513d601f19601f82011682018060405250810190610f8a9190612fab565b90508a811015610fcf576040517f08c379a0000000000000000000000000000000000000000000000000000000008152600401610fc690613408565b60405180910390fd5b8960000160009054906101000a900473ffffffffffffffffffffffffffffffffffffffff1673ffffffffffffffffffffffffffffffffffffffff1663a9059cbb338d6040518363ffffffff1660e01b815260040161102e929190612cfa565b6020604051808303816000875af115801561104d573d6000803e3d6000fd5b505050506040513d601f19601f820116820180604052508101906110719190613272565b5061107b8c61221a565b3373ffffffffffffffffffffffffffffffffffffffff168a60000160009054906101000a900473ffffffffffffffffffffffffffffffffffffffff1673ffffffffffffffffffffffffffffffffffffffff167f9035ecdcaed275d6bebbba87ff80ec350e02146610b037b3fc14d0de3ecd309460018f8f88604051611103949392919061329f565b60405180910390a35050505050505050505061111d612285565b5050565b64077eac81e281565b60066020528060005260406000206000915090508060000160009054906101000a900473ffffffffffffffffffffffffffffffffffffffff169080600101805461117390613457565b80601f016020809104026020016040519081016040528092919081815260200182805461119f90613457565b80156111ec5780601f106111c1576101008083540402835291602001916111ec565b820191906000526020600020905b8154815290600101906020018083116111cf57829003601f168201915b50505050509080600201805461120190613457565b80601f016020809104026020016040519081016040528092919081815260200182805461122d90613457565b801561127a5780601f1061124f5761010080835404028352916020019161127a565b820191906000526020600020905b81548152906001019060200180831161125d57829003601f168201915b5050505050908060030160009054906101000a900473ffffffffffffffffffffffffffffffffffffffff16908060040154908060050154905086565b6937c18587a0cfdf90000081565b600260009054906101000a900473ffffffffffffffffffffffffffffffffffffffff1681565b6112f261228e565b6112fc6000612315565b565b6000806113096121d4565b6000855111801561131b575060008451115b61135a576040517f08c379a0000000000000000000000000000000000000000000000000000000008152600401611351906134d4565b60405180910390fd5b6802b5e3af16b1880000600260009054906101000a900473ffffffffffffffffffffffffffffffffffffffff1673ffffffffffffffffffffffffffffffffffffffff166370a08231336040518263ffffffff1660e01b81526004016113bf9190612d95565b602060405180830381865afa1580156113dc573d6000803e3d6000fd5b505050506040513d601f19601f820116820180604052508101906114009190612fab565b1015611441576040517f08c379a00000000000000000000000000000000000000000000000000000000081526004016114389061339c565b60405180910390fd5b600260009054906101000a900473ffffffffffffffffffffffffffffffffffffffff1673ffffffffffffffffffffffffffffffffffffffff166323b872dd33306802b5e3af16b18800006040518463ffffffff1660e01b81526004016114a99392919061352f565b6020604051808303816000875af11580156114c8573d6000803e3d6000fd5b505050506040513d601f19601f820116820180604052508101906114ec9190613272565b506802b5e3af16b18800006005600082825461150891906131db565b925050819055506000838686306040516115219061285c565b61152d93929190613566565b8190604051809103906000f590508015801561154d573d6000803e3d6000fd5b509050600073ffffffffffffffffffffffffffffffffffffffff168173ffffffffffffffffffffffffffffffffffffffff16036115bf576040517f08c379a00000000000000000000000000000000000000000000000000000000081526004016115b6906135f7565b60405180910390fd5b600073ffffffffffffffffffffffffffffffffffffffff1660066000600454815260200190815260200160002060000160009054906101000a900473ffffffffffffffffffffffffffffffffffffffff1673ffffffffffffffffffffffffffffffffffffffff1614611666576040517f08c379a000000000000000000000000000000000000000000000000000000000815260040161165d90613663565b60405180910390fd5b6040518060c001604052808273ffffffffffffffffffffffffffffffffffffffff1681526020018781526020018681526020013373ffffffffffffffffffffffffffffffffffffffff16815260200160008152602001600081525060066000600454815260200190815260200160002060008201518160000160006101000a81548173ffffffffffffffffffffffffffffffffffffffff021916908373ffffffffffffffffffffffffffffffffffffffff16021790555060208201518160010190816117329190613825565b5060408201518160020190816117489190613825565b5060608201518160030160006101000a81548173ffffffffffffffffffffffffffffffffffffffff021916908373ffffffffffffffffffffffffffffffffffffffff1602179055506080820151816004015560a082015181600501559050507f0707c578caac48692be6f8fc3cfd4bb364666855ba22bd605283a98794d89d3d60045482888842336040516117e2969594939291906138f7565b60405180910390a1600060045490506004600081548092919061180490613966565b91905055508181935093505050611819612285565b935093915050565b600360009054906101000a900473ffffffffffffffffffffffffffffffffffffffff1681565b600260149054906101000a900460ff1681565b60008060009054906101000a900473ffffffffffffffffffffffffffffffffffffffff16905090565b600080600080600660008681526020019081526020016000209050600073ffffffffffffffffffffffffffffffffffffffff168160000160009054906101000a900473ffffffffffffffffffffffffffffffffffffffff1673ffffffffffffffffffffffffffffffffffffffff1603611931576040517f08c379a000000000000000000000000000000000000000000000000000000000815260040161192890612f76565b60405180910390fd5b6000816005015490506000610bb88261194a9190613118565b6801a055690d9db8000061195e91906131db565b90506000818261196e91906130a7565b6ec097ce7bc90715b34b9f100000000064077eac81e261198e91906130a7565b6119989190613118565b905060006937c18587a0cfdf900000670de0b6b3a7640000606487600501546119c191906130a7565b6119cb91906130a7565b6119d59190613118565b905060008560050154905082670de0b6b3a7640000836119f59190613118565b829850985098505050505050509193909250565b60045481565b611a1761228e565b600073ffffffffffffffffffffffffffffffffffffffff168273ffffffffffffffffffffffffffffffffffffffff1603611a86576040517f08c379a0000000000000000000000000000000000000000000000000000000008152600401611a7d906139fa565b60405180910390fd5b600554811115611acb576040517f08c379a0000000000000000000000000000000000000000000000000000000008152600401611ac290613a66565b60405180910390fd5b600260009054906101000a900473ffffffffffffffffffffffffffffffffffffffff1673ffffffffffffffffffffffffffffffffffffffff1663a9059cbb83836040518363ffffffff1660e01b8152600401611b28929190613aa7565b6020604051808303816000875af1158015611b47573d6000803e3d6000fd5b505050506040513d601f19601f82011682018060405250810190611b6b9190613272565b505050565b60055481565b611b7e6121d4565b600260149054906101000a900460ff1615611bce576040517f08c379a0000000000000000000000000000000000000000000000000000000008152600401611bc590612f0a565b60405180910390fd5b611bd78261221a565b6000600660008481526020019081526020016000209050600073ffffffffffffffffffffffffffffffffffffffff168160000160009054906101000a900473ffffffffffffffffffffffffffffffffffffffff1673ffffffffffffffffffffffffffffffffffffffff1603611c81576040517f08c379a0000000000000000000000000000000000000000000000000000000008152600401611c7890612f76565b60405180910390fd5b600082118015611d2c575081600260009054906101000a900473ffffffffffffffffffffffffffffffffffffffff1673ffffffffffffffffffffffffffffffffffffffff166370a08231336040518263ffffffff1660e01b8152600401611ce89190612d95565b602060405180830381865afa158015611d05573d6000803e3d6000fd5b505050506040513d601f19601f82011682018060405250810190611d299190612fab565b10155b611d6b576040517f08c379a0000000000000000000000000000000000000000000000000000000008152600401611d629061339c565b60405180910390fd5b600260009054906101000a900473ffffffffffffffffffffffffffffffffffffffff1673ffffffffffffffffffffffffffffffffffffffff166323b872dd3330856040518463ffffffff1660e01b8152600401611dca9392919061320f565b6020604051808303816000875af1158015611de9573d6000803e3d6000fd5b505050506040513d601f19601f82011682018060405250810190611e0d9190613272565b506000612710603284611e2091906130a7565b611e2a9190613118565b90508060056000828254611e3e91906131db565b9250508190555060008184611e539190613073565b90506000836005015490506000610bb88383611e6f91906131db565b611e799190613118565b6801a055690d9db80000611e8d91906131db565b90506000816ec097ce7bc90715b34b9f100000000064077eac81e2611eb291906130a7565b611ebc9190613118565b670de0b6b3a7640000633ff4aeff611ed491906130a7565b611ede9190613073565b90506000866004015482611ef29190613073565b905060008760000160009054906101000a900473ffffffffffffffffffffffffffffffffffffffff16905060008173ffffffffffffffffffffffffffffffffffffffff166370a08231306040518263ffffffff1660e01b8152600401611f589190612d95565b602060405180830381865afa158015611f75573d6000803e3d6000fd5b505050506040513d601f19601f82011682018060405250810190611f999190612fab565b905082811015611fde576040517f08c379a0000000000000000000000000000000000000000000000000000000008152600401611fd590613408565b60405180910390fd5b8173ffffffffffffffffffffffffffffffffffffffff1663a9059cbb33856040518363ffffffff1660e01b8152600401612019929190612cfa565b6020604051808303816000875af1158015612038573d6000803e3d6000fd5b505050506040513d601f19601f8201168201806040525081019061205c9190613272565b5050508487600501600082825461207391906131db565b925050819055508087600401600082825461208e91906131db565b9250508190555061209e8961221a565b3373ffffffffffffffffffffffffffffffffffffffff168760000160009054906101000a900473ffffffffffffffffffffffffffffffffffffffff1673ffffffffffffffffffffffffffffffffffffffff167f9035ecdcaed275d6bebbba87ff80ec350e02146610b037b3fc14d0de3ecd309460018c858d604051612126949392919061329f565b60405180910390a35050505050505061213d612285565b5050565b603281565b61214e61228e565b600073ffffffffffffffffffffffffffffffffffffffff168173ffffffffffffffffffffffffffffffffffffffff16036121c05760006040517f1e4fbdf70000000000000000000000000000000000000000000000000000000081526004016121b79190612d95565b60405180910390fd5b6121c981612315565b50565b633ff4aeff81565b600260015403612210576040517f3ee5aeb500000000000000000000000000000000000000000000000000000000815260040160405180910390fd5b6002600181905550565b60006006600083815260200190815260200160002090506937c18587a0cfdf900000816005015410612262576001600260146101000a81548160ff0219169083151502179055505b600260149054906101000a900460ff161561228157612280826123d9565b5b5050565b60018081905550565b612296612854565b73ffffffffffffffffffffffffffffffffffffffff166122b461185a565b73ffffffffffffffffffffffffffffffffffffffff1614612313576122d7612854565b6040517f118cdaa700000000000000000000000000000000000000000000000000000000815260040161230a9190612d95565b60405180910390fd5b565b60008060009054906101000a900473ffffffffffffffffffffffffffffffffffffffff169050816000806101000a81548173ffffffffffffffffffffffffffffffffffffffff021916908373ffffffffffffffffffffffffffffffffffffffff1602179055508173ffffffffffffffffffffffffffffffffffffffff168173ffffffffffffffffffffffffffffffffffffffff167f8be0079c531659141344cd1fd0a4f28419497f9722a3daafe3b4186f6b6457e060405160405180910390a35050565b600060066000838152602001908152602001600020905060008160000160009054906101000a900473ffffffffffffffffffffffffffffffffffffffff1673ffffffffffffffffffffffffffffffffffffffff166370a08231306040518263ffffffff1660e01b815260040161244f9190612d95565b602060405180830381865afa15801561246c573d6000803e3d6000fd5b505050506040513d601f19601f820116820180604052508101906124909190612fab565b9050600069043c33c193756480000083600501546124ae9190613073565b90507f3c5ad147104e56be34a9176a6692f7df8d2f4b29a5af06bc6b98970d329d6577826040516124df9190613b1c565b60405180910390a17f3c5ad147104e56be34a9176a6692f7df8d2f4b29a5af06bc6b98970d329d6577816040516125169190613b96565b60405180910390a160008211801561252e5750600081115b15612815578260000160009054906101000a900473ffffffffffffffffffffffffffffffffffffffff1673ffffffffffffffffffffffffffffffffffffffff1663095ea7b3600360009054906101000a900473ffffffffffffffffffffffffffffffffffffffff16846040518363ffffffff1660e01b81526004016125b4929190612cfa565b6020604051808303816000875af11580156125d3573d6000803e3d6000fd5b505050506040513d601f19601f820116820180604052508101906125f79190613272565b50600260009054906101000a900473ffffffffffffffffffffffffffffffffffffffff1673ffffffffffffffffffffffffffffffffffffffff1663095ea7b3600360009054906101000a900473ffffffffffffffffffffffffffffffffffffffff16836040518363ffffffff1660e01b8152600401612677929190612cfa565b6020604051808303816000875af1158015612696573d6000803e3d6000fd5b505050506040513d601f19601f820116820180604052508101906126ba9190613272565b50600360009054906101000a900473ffffffffffffffffffffffffffffffffffffffff1673ffffffffffffffffffffffffffffffffffffffff1663e8e337008460000160009054906101000a900473ffffffffffffffffffffffffffffffffffffffff16600260009054906101000a900473ffffffffffffffffffffffffffffffffffffffff16858560008030426040518963ffffffff1660e01b815260040161276b989796959493929190613bff565b6060604051808303816000875af115801561278a573d6000803e3d6000fd5b505050506040513d601f19601f820116820180604052508101906127ae9190613c7d565b5050507f9e9c103607bcc274df5d50a1d1b1921ec13de0d0b83cdcfdf80bba2d525452758360000160009054906101000a900473ffffffffffffffffffffffffffffffffffffffff16838360405161280893929190613cd0565b60405180910390a161284e565b7f3c5ad147104e56be34a9176a6692f7df8d2f4b29a5af06bc6b98970d329d657760006040516128459190613d79565b60405180910390a15b50505050565b600033905090565b611b1e80613da883390190565b6000819050919050565b61287c81612869565b82525050565b60006020820190506128976000830184612873565b92915050565b6000604051905090565b600080fd5b600080fd5b6128ba81612869565b81146128c557600080fd5b50565b6000813590506128d7816128b1565b92915050565b600080604083850312156128f4576128f36128a7565b5b6000612902858286016128c8565b9250506020612913858286016128c8565b9150509250929050565b600060208284031215612933576129326128a7565b5b6000612941848285016128c8565b91505092915050565b600073ffffffffffffffffffffffffffffffffffffffff82169050919050565b60006129758261294a565b9050919050565b6129858161296a565b82525050565b600081519050919050565b600082825260208201905092915050565b60005b838110156129c55780820151818401526020810190506129aa565b60008484015250505050565b6000601f19601f8301169050919050565b60006129ed8261298b565b6129f78185612996565b9350612a078185602086016129a7565b612a10816129d1565b840191505092915050565b600060c082019050612a30600083018961297c565b8181036020830152612a4281886129e2565b90508181036040830152612a5681876129e2565b9050612a65606083018661297c565b612a726080830185612873565b612a7f60a0830184612873565b979650505050505050565b6000819050919050565b6000612aaf612aaa612aa58461294a565b612a8a565b61294a565b9050919050565b6000612ac182612a94565b9050919050565b6000612ad382612ab6565b9050919050565b612ae381612ac8565b82525050565b6000602082019050612afe6000830184612ada565b92915050565b600080fd5b600080fd5b7f4e487b7100000000000000000000000000000000000000000000000000000000600052604160045260246000fd5b612b46826129d1565b810181811067ffffffffffffffff82111715612b6557612b64612b0e565b5b80604052505050565b6000612b7861289d565b9050612b848282612b3d565b919050565b600067ffffffffffffffff821115612ba457612ba3612b0e565b5b612bad826129d1565b9050602081019050919050565b82818337600083830152505050565b6000612bdc612bd784612b89565b612b6e565b905082815260208101848484011115612bf857612bf7612b09565b5b612c03848285612bba565b509392505050565b600082601f830112612c2057612c1f612b04565b5b8135612c30848260208601612bc9565b91505092915050565b6000819050919050565b612c4c81612c39565b8114612c5757600080fd5b50565b600081359050612c6981612c43565b92915050565b600080600060608486031215612c8857612c876128a7565b5b600084013567ffffffffffffffff811115612ca657612ca56128ac565b5b612cb286828701612c0b565b935050602084013567ffffffffffffffff811115612cd357612cd26128ac565b5b612cdf86828701612c0b565b9250506040612cf086828701612c5a565b9150509250925092565b6000604082019050612d0f600083018561297c565b612d1c6020830184612873565b9392505050565b6000612d2e82612ab6565b9050919050565b612d3e81612d23565b82525050565b6000602082019050612d596000830184612d35565b92915050565b60008115159050919050565b612d7481612d5f565b82525050565b6000602082019050612d8f6000830184612d6b565b92915050565b6000602082019050612daa600083018461297c565b92915050565b6000606082019050612dc56000830186612873565b612dd26020830185612873565b612ddf6040830184612873565b949350505050565b6000612df28261294a565b9050919050565b612e0281612de7565b8114612e0d57600080fd5b50565b600081359050612e1f81612df9565b92915050565b60008060408385031215612e3c57612e3b6128a7565b5b6000612e4a85828601612e10565b9250506020612e5b858286016128c8565b9150509250929050565b612e6e8161296a565b8114612e7957600080fd5b50565b600081359050612e8b81612e65565b92915050565b600060208284031215612ea757612ea66128a7565b5b6000612eb584828501612e7c565b91505092915050565b7f4445582070686173653a205573652044455820746f2074726164650000000000600082015250565b6000612ef4601b83612996565b9150612eff82612ebe565b602082019050919050565b60006020820190508181036000830152612f2381612ee7565b9050919050565b7f496e76616c696420746f6b656e00000000000000000000000000000000000000600082015250565b6000612f60600d83612996565b9150612f6b82612f2a565b602082019050919050565b60006020820190508181036000830152612f8f81612f53565b9050919050565b600081519050612fa5816128b1565b92915050565b600060208284031215612fc157612fc06128a7565b5b6000612fcf84828501612f96565b91505092915050565b7f496e73756666696369656e742066616e20746f6b656e00000000000000000000600082015250565b600061300e601683612996565b915061301982612fd8565b602082019050919050565b6000602082019050818103600083015261303d81613001565b9050919050565b7f4e487b7100000000000000000000000000000000000000000000000000000000600052601160045260246000fd5b600061307e82612869565b915061308983612869565b92508282039050818111156130a1576130a0613044565b5b92915050565b60006130b282612869565b91506130bd83612869565b92508282026130cb81612869565b915082820484148315176130e2576130e1613044565b5b5092915050565b7f4e487b7100000000000000000000000000000000000000000000000000000000600052601260045260246000fd5b600061312382612869565b915061312e83612869565b92508261313e5761313d6130e9565b5b828204905092915050565b7f496e73756666696369656e742063757272656e637920746f6b656e20696e206360008201527f6f6e747261637400000000000000000000000000000000000000000000000000602082015250565b60006131a5602783612996565b91506131b082613149565b604082019050919050565b600060208201905081810360008301526131d481613198565b9050919050565b60006131e682612869565b91506131f183612869565b925082820190508082111561320957613208613044565b5b92915050565b6000606082019050613224600083018661297c565b613231602083018561297c565b61323e6040830184612873565b949350505050565b61324f81612d5f565b811461325a57600080fd5b50565b60008151905061326c81613246565b92915050565b600060208284031215613288576132876128a7565b5b60006132968482850161325d565b91505092915050565b60006080820190506132b46000830187612d6b565b6132c16020830186612873565b6132ce6040830185612873565b6132db6060830184612873565b95945050505050565b7f416d6f756e74206d7573742062652067726561746572207468616e207a65726f600082015250565b600061331a602083612996565b9150613325826132e4565b602082019050919050565b600060208201905081810360008301526133498161330d565b9050919050565b7f496e73756666696369656e742063757272656e637920746f6b656e0000000000600082015250565b6000613386601b83612996565b915061339182613350565b602082019050919050565b600060208201905081810360008301526133b581613379565b9050919050565b7f4552433230496e73756666696369656e7442616c616e63650000000000000000600082015250565b60006133f2601883612996565b91506133fd826133bc565b602082019050919050565b60006020820190508181036000830152613421816133e5565b9050919050565b7f4e487b7100000000000000000000000000000000000000000000000000000000600052602260045260246000fd5b6000600282049050600182168061346f57607f821691505b60208210810361348257613481613428565b5b50919050565b7f496e76616c6964206e616d65206f722073796d626f6c00000000000000000000600082015250565b60006134be601683612996565b91506134c982613488565b602082019050919050565b600060208201905081810360008301526134ed816134b1565b9050919050565b6000819050919050565b600061351961351461350f846134f4565b612a8a565b612869565b9050919050565b613529816134fe565b82525050565b6000606082019050613544600083018661297c565b613551602083018561297c565b61355e6040830184613520565b949350505050565b6000606082019050818103600083015261358081866129e2565b9050818103602083015261359481856129e2565b90506135a3604083018461297c565b949350505050565b7f546f6b656e206372656174696f6e206661696c65640000000000000000000000600082015250565b60006135e1601583612996565b91506135ec826135ab565b602082019050919050565b60006020820190508181036000830152613610816135d4565b9050919050565b7f496e76616c696420746f6b656e49640000000000000000000000000000000000600082015250565b600061364d600f83612996565b915061365882613617565b602082019050919050565b6000602082019050818103600083015261367c81613640565b9050919050565b60008190508160005260206000209050919050565b60006020601f8301049050919050565b600082821b905092915050565b6000600883026136e57fffffffffffffffffffffffffffffffffffffffffffffffffffffffffffffffff826136a8565b6136ef86836136a8565b95508019841693508086168417925050509392505050565b600061372261371d61371884612869565b612a8a565b612869565b9050919050565b6000819050919050565b61373c83613707565b61375061374882613729565b8484546136b5565b825550505050565b600090565b613765613758565b613770818484613733565b505050565b5b818110156137945761378960008261375d565b600181019050613776565b5050565b601f8211156137d9576137aa81613683565b6137b384613698565b810160208510156137c2578190505b6137d66137ce85613698565b830182613775565b50505b505050565b600082821c905092915050565b60006137fc600019846008026137de565b1980831691505092915050565b600061381583836137eb565b9150826002028217905092915050565b61382e8261298b565b67ffffffffffffffff81111561384757613846612b0e565b5b6138518254613457565b61385c828285613798565b600060209050601f83116001811461388f576000841561387d578287015190505b6138878582613809565b8655506138ef565b601f19841661389d86613683565b60005b828110156138c5578489015182556001820191506020850194506020810190506138a0565b868310156138e257848901516138de601f8916826137eb565b8355505b6001600288020188555050505b505050505050565b600060c08201905061390c6000830189612873565b613919602083018861297c565b818103604083015261392b81876129e2565b9050818103606083015261393f81866129e2565b905061394e6080830185612873565b61395b60a083018461297c565b979650505050505050565b600061397182612869565b91507fffffffffffffffffffffffffffffffffffffffffffffffffffffffffffffffff82036139a3576139a2613044565b5b600182019050919050565b7f496e76616c696420616464726573730000000000000000000000000000000000600082015250565b60006139e4600f83612996565b91506139ef826139ae565b602082019050919050565b60006020820190508181036000830152613a13816139d7565b9050919050565b7f496e73756666696369656e742062616c616e6365000000000000000000000000600082015250565b6000613a50601483612996565b9150613a5b82613a1a565b602082019050919050565b60006020820190508181036000830152613a7f81613a43565b9050919050565b6000613a9182612ab6565b9050919050565b613aa181613a86565b82525050565b6000604082019050613abc6000830185613a98565b613ac96020830184612873565b9392505050565b7f546f6b656e20416d6f756e740000000000000000000000000000000000000000600082015250565b6000613b06600c83612996565b9150613b1182613ad0565b602082019050919050565b60006040820190508181036000830152613b3581613af9565b9050613b446020830184612873565b92915050565b7f43757272656e637920416d6f756e740000000000000000000000000000000000600082015250565b6000613b80600f83612996565b9150613b8b82613b4a565b602082019050919050565b60006040820190508181036000830152613baf81613b73565b9050613bbe6020830184612873565b92915050565b6000819050919050565b6000613be9613be4613bdf84613bc4565b612a8a565b612869565b9050919050565b613bf981613bce565b82525050565b600061010082019050613c15600083018b61297c565b613c22602083018a61297c565b613c2f6040830189612873565b613c3c6060830188612873565b613c496080830187613bf0565b613c5660a0830186613bf0565b613c6360c083018561297c565b613c7060e0830184612873565b9998505050505050505050565b600080600060608486031215613c9657613c956128a7565b5b6000613ca486828701612f96565b9350506020613cb586828701612f96565b9250506040613cc686828701612f96565b9150509250925092565b6000606082019050613ce5600083018661297c565b613cf26020830185612873565b613cff6040830184612873565b949350505050565b7f496e73756666696369656e7420746f6b656e206f722063757272656e6379206160008201527f6d6f756e74000000000000000000000000000000000000000000000000000000602082015250565b6000613d63602583612996565b9150613d6e82613d07565b604082019050919050565b60006040820190508181036000830152613d9281613d56565b9050613da16020830184613bf0565b9291505056fe608060405234801561001057600080fd5b50604051611b1e380380611b1e8339818101604052810190610032919061051f565b8282816003908161004391906107cb565b50806004908161005391906107cb565b50505061008e8161006861009660201b60201c565b600a6100749190610a0c565b633b9aca006100839190610a57565b61009f60201b60201c565b505050610b58565b60006012905090565b600073ffffffffffffffffffffffffffffffffffffffff168273ffffffffffffffffffffffffffffffffffffffff16036101115760006040517fec442f050000000000000000000000000000000000000000000000000000000081526004016101089190610aa8565b60405180910390fd5b6101236000838361012760201b60201c565b5050565b600073ffffffffffffffffffffffffffffffffffffffff168373ffffffffffffffffffffffffffffffffffffffff160361017957806002600082825461016d9190610ac3565b9250508190555061024c565b60008060008573ffffffffffffffffffffffffffffffffffffffff1673ffffffffffffffffffffffffffffffffffffffff16815260200190815260200160002054905081811015610205578381836040517fe450d38c0000000000000000000000000000000000000000000000000000000081526004016101fc93929190610b06565b60405180910390fd5b8181036000808673ffffffffffffffffffffffffffffffffffffffff1673ffffffffffffffffffffffffffffffffffffffff16815260200190815260200160002081905550505b600073ffffffffffffffffffffffffffffffffffffffff168273ffffffffffffffffffffffffffffffffffffffff160361029557806002600082825403925050819055506102e2565b806000808473ffffffffffffffffffffffffffffffffffffffff1673ffffffffffffffffffffffffffffffffffffffff168152602001908152602001600020600082825401925050819055505b8173ffffffffffffffffffffffffffffffffffffffff168373ffffffffffffffffffffffffffffffffffffffff167fddf252ad1be2c89b69c2b068fc378daa952ba7f163c4a11628f55a4df523b3ef8360405161033f9190610b3d565b60405180910390a3505050565b6000604051905090565b600080fd5b600080fd5b600080fd5b600080fd5b6000601f19601f8301169050919050565b7f4e487b7100000000000000000000000000000000000000000000000000000000600052604160045260246000fd5b6103b38261036a565b810181811067ffffffffffffffff821117156103d2576103d161037b565b5b80604052505050565b60006103e561034c565b90506103f182826103aa565b919050565b600067ffffffffffffffff8211156104115761041061037b565b5b61041a8261036a565b9050602081019050919050565b60005b8381101561044557808201518184015260208101905061042a565b60008484015250505050565b600061046461045f846103f6565b6103db565b9050828152602081018484840111156104805761047f610365565b5b61048b848285610427565b509392505050565b600082601f8301126104a8576104a7610360565b5b81516104b8848260208601610451565b91505092915050565b600073ffffffffffffffffffffffffffffffffffffffff82169050919050565b60006104ec826104c1565b9050919050565b6104fc816104e1565b811461050757600080fd5b50565b600081519050610519816104f3565b92915050565b60008060006060848603121561053857610537610356565b5b600084015167ffffffffffffffff8111156105565761055561035b565b5b61056286828701610493565b935050602084015167ffffffffffffffff8111156105835761058261035b565b5b61058f86828701610493565b92505060406105a08682870161050a565b9150509250925092565b600081519050919050565b7f4e487b7100000000000000000000000000000000000000000000000000000000600052602260045260246000fd5b600060028204905060018216806105fc57607f821691505b60208210810361060f5761060e6105b5565b5b50919050565b60008190508160005260206000209050919050565b60006020601f8301049050919050565b600082821b905092915050565b6000600883026106777fffffffffffffffffffffffffffffffffffffffffffffffffffffffffffffffff8261063a565b610681868361063a565b95508019841693508086168417925050509392505050565b6000819050919050565b6000819050919050565b60006106c86106c36106be84610699565b6106a3565b610699565b9050919050565b6000819050919050565b6106e2836106ad565b6106f66106ee826106cf565b848454610647565b825550505050565b600090565b61070b6106fe565b6107168184846106d9565b505050565b5b8181101561073a5761072f600082610703565b60018101905061071c565b5050565b601f82111561077f5761075081610615565b6107598461062a565b81016020851015610768578190505b61077c6107748561062a565b83018261071b565b50505b505050565b600082821c905092915050565b60006107a260001984600802610784565b1980831691505092915050565b60006107bb8383610791565b9150826002028217905092915050565b6107d4826105aa565b67ffffffffffffffff8111156107ed576107ec61037b565b5b6107f782546105e4565b61080282828561073e565b600060209050601f8311600181146108355760008415610823578287015190505b61082d85826107af565b865550610895565b601f19841661084386610615565b60005b8281101561086b57848901518255600182019150602085019450602081019050610846565b868310156108885784890151610884601f891682610791565b8355505b6001600288020188555050505b505050505050565b7f4e487b7100000000000000000000000000000000000000000000000000000000600052601160045260246000fd5b60008160011c9050919050565b6000808291508390505b6001851115610923578086048111156108ff576108fe61089d565b5b600185161561090e5780820291505b808102905061091c856108cc565b94506108e3565b94509492505050565b60008261093c57600190506109f8565b8161094a57600090506109f8565b8160018114610960576002811461096a57610999565b60019150506109f8565b60ff84111561097c5761097b61089d565b5b8360020a9150848211156109935761099261089d565b5b506109f8565b5060208310610133831016604e8410600b84101617156109ce5782820a9050838111156109c9576109c861089d565b5b6109f8565b6109db84848460016108d9565b925090508184048111156109f2576109f161089d565b5b81810290505b9392505050565b600060ff82169050919050565b6000610a1782610699565b9150610a22836109ff565b9250610a4f7fffffffffffffffffffffffffffffffffffffffffffffffffffffffffffffffff848461092c565b905092915050565b6000610a6282610699565b9150610a6d83610699565b9250828202610a7b81610699565b91508282048414831517610a9257610a9161089d565b5b5092915050565b610aa2816104e1565b82525050565b6000602082019050610abd6000830184610a99565b92915050565b6000610ace82610699565b9150610ad983610699565b9250828201905080821115610af157610af061089d565b5b92915050565b610b0081610699565b82525050565b6000606082019050610b1b6000830186610a99565b610b286020830185610af7565b610b356040830184610af7565b949350505050565b6000602082019050610b526000830184610af7565b92915050565b610fb780610b676000396000f3fe608060405234801561001057600080fd5b50600436106100b45760003560e01c806342966c681161007157806342966c681461019157806370a08231146101ad57806379cc6790146101dd57806395d89b41146101f9578063a9059cbb14610217578063dd62ed3e14610247576100b4565b806306fdde03146100b9578063095ea7b3146100d757806318160ddd1461010757806323b872dd146101255780632ff2e9dc14610155578063313ce56714610173575b600080fd5b6100c1610277565b6040516100ce9190610bde565b60405180910390f35b6100f160048036038101906100ec9190610c99565b610309565b6040516100fe9190610cf4565b60405180910390f35b61010f61032c565b60405161011c9190610d1e565b60405180910390f35b61013f600480360381019061013a9190610d39565b610336565b60405161014c9190610cf4565b60405180910390f35b61015d610365565b60405161016a9190610d1e565b60405180910390f35b61017b61036d565b6040516101889190610da8565b60405180910390f35b6101ab60048036038101906101a69190610dc3565b610376565b005b6101c760048036038101906101c29190610df0565b61038a565b6040516101d49190610d1e565b60405180910390f35b6101f760048036038101906101f29190610c99565b6103d2565b005b6102016103f2565b60405161020e9190610bde565b60405180910390f35b610231600480360381019061022c9190610c99565b610484565b60405161023e9190610cf4565b60405180910390f35b610261600480360381019061025c9190610e1d565b6104a7565b60405161026e9190610d1e565b60405180910390f35b60606003805461028690610e8c565b80601f01602080910402602001604051908101604052809291908181526020018280546102b290610e8c565b80156102ff5780601f106102d4576101008083540402835291602001916102ff565b820191906000526020600020905b8154815290600101906020018083116102e257829003601f168201915b5050505050905090565b60008061031461052e565b9050610321818585610536565b600191505092915050565b6000600254905090565b60008061034161052e565b905061034e858285610548565b6103598585856105dc565b60019150509392505050565b633b9aca0081565b60006012905090565b61038761038161052e565b826106d0565b50565b60008060008373ffffffffffffffffffffffffffffffffffffffff1673ffffffffffffffffffffffffffffffffffffffff168152602001908152602001600020549050919050565b6103e4826103de61052e565b83610548565b6103ee82826106d0565b5050565b60606004805461040190610e8c565b80601f016020809104026020016040519081016040528092919081815260200182805461042d90610e8c565b801561047a5780601f1061044f5761010080835404028352916020019161047a565b820191906000526020600020905b81548152906001019060200180831161045d57829003601f168201915b5050505050905090565b60008061048f61052e565b905061049c8185856105dc565b600191505092915050565b6000600160008473ffffffffffffffffffffffffffffffffffffffff1673ffffffffffffffffffffffffffffffffffffffff16815260200190815260200160002060008373ffffffffffffffffffffffffffffffffffffffff1673ffffffffffffffffffffffffffffffffffffffff16815260200190815260200160002054905092915050565b600033905090565b6105438383836001610752565b505050565b600061055484846104a7565b90507fffffffffffffffffffffffffffffffffffffffffffffffffffffffffffffffff81146105d657818110156105c6578281836040517ffb8f41b20000000000000000000000000000000000000000000000000000000081526004016105bd93929190610ecc565b60405180910390fd5b6105d584848484036000610752565b5b50505050565b600073ffffffffffffffffffffffffffffffffffffffff168373ffffffffffffffffffffffffffffffffffffffff160361064e5760006040517f96c6fd1e0000000000000000000000000000000000000000000000000000000081526004016106459190610f03565b60405180910390fd5b600073ffffffffffffffffffffffffffffffffffffffff168273ffffffffffffffffffffffffffffffffffffffff16036106c05760006040517fec442f050000000000000000000000000000000000000000000000000000000081526004016106b79190610f03565b60405180910390fd5b6106cb838383610929565b505050565b600073ffffffffffffffffffffffffffffffffffffffff168273ffffffffffffffffffffffffffffffffffffffff16036107425760006040517f96c6fd1e0000000000000000000000000000000000000000000000000000000081526004016107399190610f03565b60405180910390fd5b61074e82600083610929565b5050565b600073ffffffffffffffffffffffffffffffffffffffff168473ffffffffffffffffffffffffffffffffffffffff16036107c45760006040517fe602df050000000000000000000000000000000000000000000000000000000081526004016107bb9190610f03565b60405180910390fd5b600073ffffffffffffffffffffffffffffffffffffffff168373ffffffffffffffffffffffffffffffffffffffff16036108365760006040517f94280d6200000000000000000000000000000000000000000000000000000000815260040161082d9190610f03565b60405180910390fd5b81600160008673ffffffffffffffffffffffffffffffffffffffff1673ffffffffffffffffffffffffffffffffffffffff16815260200190815260200160002060008573ffffffffffffffffffffffffffffffffffffffff1673ffffffffffffffffffffffffffffffffffffffff168152602001908152602001600020819055508015610923578273ffffffffffffffffffffffffffffffffffffffff168473ffffffffffffffffffffffffffffffffffffffff167f8c5be1e5ebec7d5bd14f71427d1e84f3dd0314c0f7b2291e5b200ac8c7c3b9258460405161091a9190610d1e565b60405180910390a35b50505050565b600073ffffffffffffffffffffffffffffffffffffffff168373ffffffffffffffffffffffffffffffffffffffff160361097b57806002600082825461096f9190610f4d565b92505081905550610a4e565b60008060008573ffffffffffffffffffffffffffffffffffffffff1673ffffffffffffffffffffffffffffffffffffffff16815260200190815260200160002054905081811015610a07578381836040517fe450d38c0000000000000000000000000000000000000000000000000000000081526004016109fe93929190610ecc565b60405180910390fd5b8181036000808673ffffffffffffffffffffffffffffffffffffffff1673ffffffffffffffffffffffffffffffffffffffff16815260200190815260200160002081905550505b600073ffffffffffffffffffffffffffffffffffffffff168273ffffffffffffffffffffffffffffffffffffffff1603610a975780600260008282540392505081905550610ae4565b806000808473ffffffffffffffffffffffffffffffffffffffff1673ffffffffffffffffffffffffffffffffffffffff168152602001908152602001600020600082825401925050819055505b8173ffffffffffffffffffffffffffffffffffffffff168373ffffffffffffffffffffffffffffffffffffffff167fddf252ad1be2c89b69c2b068fc378daa952ba7f163c4a11628f55a4df523b3ef83604051610b419190610d1e565b60405180910390a3505050565b600081519050919050565b600082825260208201905092915050565b60005b83811015610b88578082015181840152602081019050610b6d565b60008484015250505050565b6000601f19601f8301169050919050565b6000610bb082610b4e565b610bba8185610b59565b9350610bca818560208601610b6a565b610bd381610b94565b840191505092915050565b60006020820190508181036000830152610bf88184610ba5565b905092915050565b600080fd5b600073ffffffffffffffffffffffffffffffffffffffff82169050919050565b6000610c3082610c05565b9050919050565b610c4081610c25565b8114610c4b57600080fd5b50565b600081359050610c5d81610c37565b92915050565b6000819050919050565b610c7681610c63565b8114610c8157600080fd5b50565b600081359050610c9381610c6d565b92915050565b60008060408385031215610cb057610caf610c00565b5b6000610cbe85828601610c4e565b9250506020610ccf85828601610c84565b9150509250929050565b60008115159050919050565b610cee81610cd9565b82525050565b6000602082019050610d096000830184610ce5565b92915050565b610d1881610c63565b82525050565b6000602082019050610d336000830184610d0f565b92915050565b600080600060608486031215610d5257610d51610c00565b5b6000610d6086828701610c4e565b9350506020610d7186828701610c4e565b9250506040610d8286828701610c84565b9150509250925092565b600060ff82169050919050565b610da281610d8c565b82525050565b6000602082019050610dbd6000830184610d99565b92915050565b600060208284031215610dd957610dd8610c00565b5b6000610de784828501610c84565b91505092915050565b600060208284031215610e0657610e05610c00565b5b6000610e1484828501610c4e565b91505092915050565b60008060408385031215610e3457610e33610c00565b5b6000610e4285828601610c4e565b9250506020610e5385828601610c4e565b9150509250929050565b7f4e487b7100000000000000000000000000000000000000000000000000000000600052602260045260246000fd5b60006002820490506001821680610ea457607f821691505b602082108103610eb757610eb6610e5d565b5b50919050565b610ec681610c25565b82525050565b6000606082019050610ee16000830186610ebd565b610eee6020830185610d0f565b610efb6040830184610d0f565b949350505050565b6000602082019050610f186000830184610ebd565b92915050565b7f4e487b7100000000000000000000000000000000000000000000000000000000600052601160045260246000fd5b6000610f5882610c63565b9150610f6383610c63565b9250828201905080821115610f7b57610f7a610f1e565b5b9291505056fea264697066735822122004614dc39c5db8dee5faf1b19d9ffe7a0ed092087d79e08d949ede12f9fb1a9f64736f6c634300081b0033a26469706673582212209754baedff776c4196c5ee3c8158629030cce06e058ee99eb49a40a20841489a64736f6c634300081b0033",
  "linkReferences": {},
  "deployedLinkReferences": {}
}